01001OSTPREUSSEN      22292901251161000464112558020989310003882109504890295633014066900912880053077022774000526340067940000000000000000009282000000000122262228516130711010403670015917102445003986130087822008513300851950036288015660701193190000000000000000276180006194002166122285161310281101339400128591000535039237700622360089754008035800398900208433008066200000000023586000781000019840013445225634913385091009168001036109988070268308031284500742800097990009494600383920020416000811400087390000000001629900584782256349138217510566620005032105163002219240205738008305401243850056846002692000177470236513001496600000000046079001745822563491441506114530300056431139660022393805362780147393008806901079980009519000095000063990001614001242200050802256349143411110722450004877106736804233720211957014827600799020153551001488600059240015299000123100008390012131225634914546901245325000903312362920698408018029201071440080888013943600088200015547000055900000000005198000000022285161320822094681700047190942098055029400028370011352022801200700500032759004527600015182228516131881010737090004863106884607150930302740005034400006692256349141663911699930004729116526401338790509883040230001164510002416000033522563491424003113100100058211125180054662404932030084951000040222563490754309059391802545731023502020491400354650442785012982900372840290352006110000087650130721001478800070070026461006250000540520077810106704903971461991631017501900973770264718124170804945232256349225832401660781306978130662302793720005042027433002645760009754225634903208981357103135645604015560013287038826903606140027655003340047800454001650019600105001290004900058000120001200050000340085900883001410011700550005930075400010009900026900313000740009800095000380002000008000090000000016000590061300764000050099500211001960007900118000540002600017002250001400000000010000000639007950000500995001960047100129000770009500008000010000600001000110000400636007480000500995003970019900139000750014400014000060001400001000010001100645008560000700993005650014600087000650011300007000130000000000000040000000628008265725200996001150043800345001000000200000006310079400005009950048600438000750000000563007880003900961003110014800096000560024000055000710000000000000100000000013005870079600015009850038900086000830008300035001530011600000000000002700006000210058800773000130098700392000620009000080000400020800081000000002400008000020001300593007170000500995005840000300012002420007400035000480000200592008140000500995006690028300047000010012700579002140001800982009640003600237006010029600033009670092900071188995703395400011337008380015000005
01012KONIGSBERG       08848930520850000186805227180408912001599003929220102043006762300441650018545009353800246590037685000000000000000004654000000000000100884893054731204193170006686041263101341160027021004457500399610014077007090700586790000000000000000167040002600000399108848930545695041532200054520409880013888400159390048766003593400154020097037004027400000000009439000360500008440003756091187905622200430767000390904268580117994011488700322500059089005287800150820007170000392900021820000000000531600160810911787058831204531120001772045134000986920073510003704900665160033067001148600069840092007000582400000000022103000410209117870608865048993700021480487789011005002012060073619003884900472930005337000039000032090000676000629600008640911787060618104605260001797045872901565350102620007584000352120064329000891500029850008010000057100003070003405091178706111380521602000331805182890263156008981800568350033611005834600049700008777000014800000000002628000000008848930547180038479100016670383124020732800010950003578010472900289180013756002313400005860884893055087204367320001794043493802731840134892002665200002100911787059593204966930001782049491100502640239357014360600608110000781000009209117870600718047854900020360476513024552001825170048348000012809118790364377019634700772360357432009064800171940193312006804300203090146439002616300048010055864000822400039920014907002858900250980034877041801401486300802831007548300444720109048049313701931020911879091250600843820544996054452501370110002677013433401302080004126091187901078670576116057549601323060005247012705901172100009849004000039800392001840021200138001610005300061000170001600058000380084700880001530012000541006170076600009009910027600269000760013800124000350001700009000050000000012000380064500770000040099600219001630008200147000730002500015002040001300000000490000900668008050000400996002260041200151000800009700011000010000700001000130000200665007600000400996003410022400165000770014000019000070001700001000010000700670008530005400994005080017300107000650011300010000170000000000000050000000654008339999900996001020048400290001230000200000006590079700004009960051500383001010000000591007820003900961002600017200112000470023800063000960000000000000120000000000006190076600016009840032500065001080009700034001720014200000000000004000006000100061700761000130098700339000390011900088000380023700098000000002300009000020000900618007030000400996005410000300009002730007500036000600000200623007930000400996006280031000061000000015500597002520002000980009690003100187006310023000040009600092200078077395501245190005503008490013700006
01013BARTENSTEIN      00419940022887000010100229880018976000038600185900007564000212900001520000729000592100012760000813000000000000000000006000000000000000041994002403800197450000288001945700085620000862000124700002510000608000511400022250000000000000000002600000084000024400419940024478001975400002730019481000844100006560001123000021600005410006563000088200000000000812000005200000250000170004318900250150020566000019400203720007137000881800001930001227000136000005030000358000005800001830000000000021700003180042842002538000198510000068001978300051230005501000019100019940000680000025900001760004289000006800000000001390000011200428420026695002206500000800021985000608200087710003249000019500030850000172000002500000780000011000027600000410042842002669500209860000067002091900077540006119000241300001830003516000024400000610000505000001400000070000103004284200270580023007000013600228710011966000535900014230000157000328300001600000451000000200000000000070000000000419940024333001863900000890018550001066700000760000093000654100001760000643000034200000120041994002451700209720000078002089400132810007176000043100000060042842002629400219330000068002186500033900009844000685300017400000036000000200428420026264002051600000820020434001052700085640001340000000300431890007885001178400039320023196000355100005000008065000153200004230003591000066500001200001652000018700000790000341000152500013470001831001924400064010038676000308300018280004513002232700082290043189004316300024580024216002421700046810000046000463500044620000173004318900103710025066002505400109570000618001033900093920000947001830052800537001590018700069000830003000038000080000800068000420086200896001380010400517005790082200009009910035000433000090006000067000250001800003000090000000011000160059200782000030099700259002780001000101000340001300009002170000300000000700000600623008270000400996002770039900148000090014000008000010000400001000130000200623007860000300997003710029300115000090016800012000030002400001000000000500632008500000600994005230023400062000070014400007000200000000000000030000000614008340081500997001550045000313000800000200000006130078100004009960051500419000660000000547008250002000980004070011500008000390031900069000440000000000000000000000000005720082100015009850044000044000640001300031002630011400000000000001300004000130058300807000140098600433000340005800011000280033700045000000004200003000010000900579007660000500995005750000400005003530000900035000180000100584008550000400996006360034300021000000010100561001930001000990009630003700414005800043700056009440090800092004192300010280000139009710002400003
01013BRAUNSBERG       00544430030697000009200307890025670000067700249930000926000123400190100000514000153400013920000014000000000000000000369000000000000000054443003138400261900000429002576100038950000275000117200170530000329000154000007570000000000000000003400000098000030200544430031902002512300002710024852000388700001970000908001646900003990001997000043400000000000356000004000000230000142005449300312490025071000024900248220004156000306900141030000953000025300004340000749000007100000490000000000063100003540054493003264200268070000095002671200025790001092001667000011220000650000016100010140001614000080700000000000643000036000544930034635002892700001060028821000319100050200001489001737600013480000089000004900000380000066000008900000660054493003416900269690000116002685300039110003230000158900157680001866000010500000370000103000004300000270000174005449300339920029350000014100292090008515000278500009670015277000142000000600000120000001200000000000053000000000544430031984002112800001120021016000449400000940000114000239100132500000288000017000002150054443003228500255760000119002545700080520017101000026100000430054493003361000277770000076002770100009840022002000367000010150000026000000400544930033774002916900001070029062002343500046850000936000000600544930019956001512900069120025290000512200012350011277000227500007480005134000118700003470002586000034900002100000543000148700013020001924002554900107540046754000559500032420007739003114400139960054493005455100025310032370003238000041200000083000403700038170000220005449300006110032364003237200014040000026000137800012620000116003660048600464001640020700073000940003800047000110001000048000350082000858001800014200572005730080200010009900016700124005680003800010000170003000003000020000000025000140059900821000040099600097000410062400042000240000600038000600003000000000240001300636008350000400996001110017400052006030004700003000020000100002000030000200627007890000400996001460012000059005870006900004000010000400002000010000600624008630000500995002920009500033005230004900002000040000000000000020000000617008260092000997000360079400132000370000100000006200086400004009960080600161000320000000566008340002600974000370004900761000210006100056000010000000000000150000000000005760083500016009840015100011000450066200013000600002900000000000001300004000120058600788000110098900156000080003700663000160008000017000000001400002000010000600587006610000500995002140000400005001140063000014000080001000593007920000500995003160067200010000020007800594001270002000980009460005400019005940004300019009810091600084000693000473650000135001270086900002
01013FISCHHAUSEN      00565670031574000013500317090025100000136000237400006744000396100000890001385000667600026720002087000000000000000000126000000000000000056567003354700266810000342002633900080570001300000256400002150000805000676800047750000000000000000015070000216000013200565670034201002596300002850025678000790400008830002940000018000011030009543000217800000000000197000048900000470000214006144800367550027532000025000272820010749000710500001880003558000293200010760000342000020500001210000000000025000007560061448003901800302570000139003011800080380004484000018300053000001990000099200003580005556000035000000000002555000031200614480049816004137600001630041213001035200177500005731000076600045380000695000001800004690000063000075400000770061448003893100289210000117002880400092940008517000537100001920003615000044000001950000885000002600000190000250006144800387730032259000016300320960015466000740400040670000174000340700002490001184000000600000000000139000000000565670034347002482500000830024742001220800000950000236000952000001840001137000134200000200056567003495300277190000094002762500164070009549000166100000080061448003805900309180000125003079300029490015100000805700046090000070000000800614480038439003052500001080030417001603900109510003423000000400614480006893001377400042640027729000581900006270013915000329700011590006769000170500002240003662000035200001780000633000210300018280002658002705000082800055366000371900021760006082003076900104560061448006185700065590034551003489700109170000138001077900103940000385006144800060630036513003650200078170000532000728500065690000716001120044800451001890022600107001100005500060000110001000068000430087900901001210009900501005980074900009009910039400260000070013000107000390001300008000040000000009000280063500775000050099500267001490000600176000660003300012001840001200000000850001000811008310000400996002510043100139000190011000017000000001100002000180000200634007430000400996003230029600186000070012600015000070003100001000010000900631008320000500995004820023100127000050010600008000370000000000000040000000619008120153900996000960049000262001500000200000006260079400004009960052700360001130000000561007920005400946002840016700004000580028100113000880000000000000050000000000005930079500013009870030600049000970000800031002570018100000000000005700008000050060500759000110098900308000340011400007000430037200085000000000800019000020000800607007230000300997004930000400010003850000700046000540000100618007930000300997005940034600060000000018800564003130001300987009640003600166005940021400068009320090200098005991700010250000140009750001700002
01013GERDAUEN         00345280018677000007800187550014969000036700146020004136000120700000290001276000751600000900000320000000000000000000028000000000000000034528001994700159230000130001579300062100000517000082800000840000647000632500008550000000000000000001810000067000007900345280019621001530200001740015128000559300005310000778000003900005100007110000028600000000000130000007800000130000060003555800195040015352000015200152000006581000532800000430000847000090000005050000130000031500002870000000000008000001840035493001974600154730000065001540800059780002785000003800012650000403000027900000800003430000011500000000000906000012900354930020775001742000000760017344000679200067100001747000006200014400000067000000800001200000020000034100000370035493002069100161720000067001610500055890006078000171600000480001879000013100001170000417000002000000080000102003549300207240017874000013000177440008915000512500010690000047000212200000610000332000000400000000000069000000000345280019517001394900000660013883000656100000630000116000619200000710000766000009500000190034528001931500162200000058001616200092220006744000018800000080035493002035200171240000072001705200018600009462000479200008860000041000001100354930020391001639800000870016311001013000056690000500000001200355580000000001216200044360023139000221700002600004818000102000002370002644000033300000410000854000009000000400000154000091100008240001043001673300058380032652000190900011110002906001864200069490035558003551000016910019314001932600040690000037000403200038750000157003555800053860019350001937700064420000485000595700053410000616000000065200651001190013500055000740001800024000050000400049000290089800918001020008200524005490078700010009900043300351000030005600059000330000900021000190000000005000120055600784000040099600388001810000200082000260001800005002230000700000000590000800585008390000400996003920038700101000040008300004000000000700001000200000200583007820000400996003470037700107000030011700008000070002600001000000000600584008620000700993005020028900060000030012000003000190000000000000040000000573008410085600996001090055500281000520000200001005750080400005009950062100348000310000100543007980002500975002830008300002000870051500006000220000000000000020000000000005780079800008009920039300033000520000500041004000005400000000000001100004000050056800780000110098900370000350005100003000340047000019000000000900005000010000400565007150000500995004730000500008004460000500055000070000100559008400000400996005710041700012000000008700544002110000900991009610003900278005450033200075009250089700103003502600003350000054009850000900002
01013HEILIGENBEIL     00439440023623000008300237060019310000045400188560008550000153700002820000741000617400007040000796000000000000000000072000000000000000043944002494500200290000264001976500105970000919000078500003450000417000510500012120000000000000000002530000053000007900439440025045002026900002040020065001113400005520000818000028100004080005982000055100000000000144000004000000250000130004394600249940020916000016200207540006922001034600003360000973000058300004040000271000010300000590000000000031600004410043946002598100205220000089002043300052310007019000040500014010000637000024300003580003438000013100000000001362000020800439460027330002224800001220022126000597100089860002415000035400036980000140000001700000860000037000037400000480043946002684600204630000096002036700067800005784000205800003220004504000017800000590000501000003100000130000137004394600270320023375000014600232290011873000502600012210000289000419400001120000466000000700000000000041000000000439440024857001928600000960019190001230900000540000135000555500002770000417000042100000220043944002510300216150000095002152000148790006183000044500000130043946002695100221040000076002202800049360009544000622200012770000040000000900439460026996002053500001050020430001076300087650000882000002000439460005147001412200053250026181000278200003830006253000142200003630003624000050900000920001207000013600000700000243000116700010450001432002013800072780038940000334800018850005006002348600091630043946004386100014110024943002495000030270000027000300000029050000095004394600112360025287002521500118620000666001119600103250000871001170060100596001180014200061000820002200027000060000600050000330085700886001430011400534005690083700008009920033400499000160004700028000190001300005000030000000015000210059100790000040099600256003440002000069000310001200018001680000600000000670001000622008140000500995002700040600109000160016700006000010000400002000170000200611007620000500995003330028400101000160022100009000030002500002000010000700615008650000600994005110021600053000120018100005000200000000000000020000000613008200092700997002240043300282000580000200000006140076100005009950052700429000430000100539008150002400976004530008200015000390032700037000420000000000000040000000000005680080300013009870053600046000400001700021002580006100000000000001300003000040057000809000100099000555000280004100014000200029800027000000000700002000010000600566007760000500995006410000300007002890001400022000220000100571008610000400996006910028700021000010005700569001210000900991009680003200446005740047000056009440092200078004231400014370000066009630003300002
01013HEILSBERG        00540670030392000004500304370025192000044700247450001053000061000192750000397000193800008020000594000000000000000000075000000000000010054067002938600237150000457002325800035470000082000058200151630000204000141300009440000000000000000001670000042000111400540670030110002249900003150022184000400100000730000395001212200001900001493000082500000000002802000004400000090000230005275700297060022432000022100222110002838000559800114070000421000058400002140000379000004800001600000000000032400002380052757003018300236000000103002349700020700002651001326900008850000335000017500007820001098000176200000000000271000019900527570031709002470100000960024605000220300044110001620001315600029010000071000008300000260000040000004300000510052757003163000230270000099002292800034920002054000168700120730003178000006900000210000038000002200000830000211005275700317400026429000015100262780009670000173100009860010767000298800000460000061000001100000000000018000000000540670029530001782300001840017639000567600000530000118000182500092810000172000045400000600054067003001800223860000151002223500089030012908000037700000470052757003084000245550000079002447600026890017312000335100010690000042000001300527570031046002466600001280024538001860900050750000825000002900527570007046001930200091740032215000318900005190007227000145800003670003699000063600001440001648000021300001120000404000107300009280001309002587100112440046502000434100023220006255003021200135660052757005274300020120029347002934700034720000073000339900032280000171005275700030840029527002953600047150000066000464900043070000342001340063900611001060013700048000700002100031000070000800036000250085600881001440011900573005630075500010009900012800252005140001900026000100001700002000070000000015000110057200782000040099600088001130056500038000140000700033000470007500000000120000800601007790000400996000900017900066005350011800003000030000100002000020000200600007280000400996001520009000074005270013900003000010000200001000040000900602008330000600994003680006600038004100011400002000020000000000000010000000585007960099200997001100070700137000440000200001005880079400005009950075800207000340000100563008280001800982000430002500779000160007800032000240000000000000030000000000005440080700019009810015300004000250065200009000610004100000000000000700002000480055700747000140098600180000030001800546000090006700037000000012600002000000001000546006040001000990003220000300007001030052600010000260000300555007460000700993004000058100017000020006900556001180002100979009500005000104005600016000014009860092600074000330000491190000146000630093100003
01013KONIGSBERG L     00483360025041000007200251130019722000084300188790006323000252900000540000425000688300005720002085000000000000000000008000000000000000048336002805000212710000204002106700076310000927000191600001720000543000375900049490000000000000000009020000135000013300483360028539002138300002260021157000890000003730001989000013800006930005743000267900000000000321000021100000340000076004425100253870019175000015800190170005637000732500000940001388000315200006810000147000007100001160000000000008600003200043638002686400196940000054001964000046280004892000009400039060000893000043700001380003393000014900000000000963000014700436380028637002214700000880022059000524100083450005033000014300026360000142000002800001040000028000032700000320043638002849500200790000068002001100057740004715000490000001110003669000019500000810000379000001300000160000158004363800287890023465000014400233210011168000431600036770000121000344900001430000395000001000000000000042000000000483360028743002000700000720019935001088200000710000166000618100001610001030000143300000110048336002901900228030000072002273100145650006128000203500000030043638002735500216280000060002156800026770008955000565900042210000051000000500436380027625002062400000920020532000950200076840003333000001300442510000000001468000051330028805000377000004770008632000153400003250004276000065400000800001790000020600001080000359000168600014570002076002253000075800045938000357800020190005053002610800095990050991005100400039050029021002904600076380000078000756000073220000238004425100069830026149002607800078810000424000745700068160000641000000056200565001440016900059000840002500035000080000700065000410086300901001370009900512005740075500008009920029600385000050007300166000360000800004000060000000005000170061600733000030099700236002490000500199000450002200007001730000800000000490000700656007730000400996002380037800228000060011900006000010000500001000150000100653007050000300997002890023600245000060018300010000040001900001000010000800660008150000600994004790018500158000050014800006000170000000000000020000000627007910075900997001240041500262001960000200000006330074700004009960046300374001620000100520007850004300957003350013400003000230036500030001100000000000000000000000000005800075800010009900036200044000910000800026001780023500000000000004300006000060059000749000110098900421000180009400007000330027100127000000001500010000020000400595006960000400996005460000400008003100000800052000720000100600007860000300997006410027000090000000013400569002630001000990009690003100268005890030200054009460091400086004340100006280000044009810001400001
01013KONIGSBERG S     02608950181375000066701820420134851000805401267970014326004270100030840008138001995400121210022980000000000000000003488000000000000050260895019342701379180003114013480400229670013871002800800043250007054001795900274680000000000000000110270001244000088102608950187756014010300020780138025002872800070410031690000414000081360027956002322000000000002396000217600005470001995028666602058720156941000124401556970038959001773400039100040386003162200080480002860000222600000300000000000216000077620287312022018401741190000677017344200366330011493000415200369940021881000655600027680043510000016700000000007962000132602873120213832017148300008460170637003792600757600033878000472100104780003033000005200017980000256000250200002330287312022395001756290000701017492800627310037369003826700046190018891000617400020390003213000031700000340001274028731202274100197457000144001960170100041003392900320660005014001596800033290003720000002400000000001926000000002608950190604013102800004730130555006965400001740001514003550300034880005939001417800001050260895019067001460680000615014545300935410036331001556500000160287312022034001896610000710018895100113640090644005377700328970000264000000502873120222264018199000007150181275008414800695120027614000000102866660286666000145400003680002607004442000109350088874004653500144220095013001617600031950032615000493200024190008801001083600096560012609012435300409950240519002695300172450039407015130600582400279926027988000504100188228018732900727990001908007089100691220001769028666600132560216818021650800204630000296002016700190810001086010000001000009002940031700308003390010700117000330003100072000450082200859001780014100541007180076200008009920025000114000250025900203000520001800014000000000000014000500076600791000040099600211000660002400213001260003800016002510000100000000460000800744008020000500995002220044400199000280006100018000000001100002000150000100779007840000400996003590021400219000260010800035000120001800002000000000700792008680000700993005100017300164000260008100017000190000000000000100000000767008610824600996000600048000285001740000100000007740081900004009960046400383001520000000698007410006000940001130033700024000640015700096001810000000000000280000000000007410071300023009770017000103002080003200052001330020400000000000008200009000070072000746000150098500208000510023000030000590020300168000000001700016000040001400731006870000400996005340000100012002720002700045001090000100731007660000400996006430025000107000000026900669003890002600974009750002500061007550009500014009860094600054025673900133300004049008960004700014
01013LABIAU           00519910027383000007600274590018873000096200179110005959000205900000290000877000432900006930003762000000000000000000203000000000000000051991002820100206380000265002037300096090002692000114600000690000645000162600039590000000000000000002710000161000019500519910028495001963500002840019351000875400021250001334000006000004560002968000322600000000000308000003800000140000068005000300284120018085000017500179100004328000562000000690001159000319200004670000387000013000000820000000000010300023730050003002947200186110000058001855300032750003706000005600035710000694000026400001860004428000036700000000001822000018400500030031040002222300000750022148000387000113390004404000006600019480000112000002300000980000021000021500000520050003003080100200770000067002001000087210003158000434200000540003036000023300000530000249000001600000140000134005000300309350024839000011700247220015255000276500032170000046000271600001030000566000001000000000000044000000000519910027626001789000000800017810001141000000680000181000380700001120000523000168100000280051991002871300217000000090002161000153220004166000211200000100050003003039800228350000083002275200022940007321000908500040030000042000000700500030030545002192500000700021855000893200101320002787000000400500030000000001945400087000032718000270800003450005826000163300003650003691000048200000550001166000013800000640000248000119800009440001643002561300104730045292000338100019490004711002899400124220050003004999500026310028644002863900050310000051000498000047960000184005000300058910028677002865000075790000207000737200067310000641000000067100654000930011700056000740001700023000050000500041000330088300906001170009400580005680063700010009900024200314000040006500178000260002200007000050000000006001320058900631000030099700177002000000300192000370001400010002390002000000000980001000621007160000300997001750051200199000030008800005000010000400001000100000200616006520000300997004360015800217000030015200012000030001200001000010000700619008030000500995006170011200130000020011000004000230000000000000020000000608007510110500996001010032200399001760000200000006110071800003009970040900464001280000000528006870005100949003330011500002000490024200039002100000000000000110000000000005420073200013009870047200132000560000300032000800019400000000000001300008000100054800689000140098600452001100006900003000240015300167000000001600002000010000400531006480000400996006410000400010002140000600029000940000200552007560000400996007090019300098000000009200573001760001000990009630003700206005730026500027009730091300087004943700003610000112009890000700002
01013MOHRUNGEN        00522900029575000006800296430022846000049900223470011413000171700004200000431000581800021460000210000000000000000000192000000000000000052290003011000232000000310002289000122210001786000135300005220000431000484200011110000000000000000003390000111000017400522900030944002313500002620022873001266000012510001175000056300004130005842000054200000000000254000007100000270000075005389200303090022652000026200223900007281000997300004820001676000027100005190000365000008300001120000000000027200013560053892003156400227720000117002265500059910008447000044600006520001249000029300004230003371000070300000000000797000028300538920032929002585700000990025758000596800124680001957000041800042740000240000001900000530000022000028700000520053892003276800235370000087002345000091570005350000178300003880005792000027900000360000382000001600000270000240005389200329390028144000016600279780015791000479000006740000364000583700001700000305000000600000000000041000000000522900030929002228400000860022198001549700000730000238000535200004300000363000022600000190052290003110600249230000123002480000190260005431000033100000120053892003241400268070000087002672000052660010945000976700007060000030000000600538920032599002548700001330025354001186300131280000352000001100538920000000001870600080470032284000404700004170009274000152300004310003554000059200000920001470000015200000750000262000138600012410001696002640600103030048540000350800018260005352002991400121290053892005394500013060029900002991200030630000043000302000028920000128005389200111180030833003086000122770000311001196600111380000828000000062500599001350017200051000660002000027000050000500046000310088300901001170009900555005620074700012009880032500445000220007500012000230001600004000050000000012000610058600721000050099500264003730002000029000550001300019001490003100000000350001200611007850000400996002320048400076000160016600009000010000200001000110000200608007180000400996003900022800076000170024700012000020001600001000010001000611008540000600994005640017100024000130020900006000110000000000000010000000601008270105200997001970041000366000260000100000006050078200005009950046800518000140000000567007710002200978005110007700019000190026000096000090000000000000090000000000005760077100013009870053400078000590002300019002120004900000000000001500005000080059200748000110098900553000550005100025000180025500024000000001100003000010000300591007200000400996006980000300011002410001900016000100000100595008010000500995007670021900013000000004400554001020001400986009580004200360005730039800025009750093100069005163400020420000149009580003800003
01013PREUSSISCH EYLAU 00483430026621000010000267210021673000061200210610009609000180500002990000881000691400002190001300000000000000000000034000000000000000048343002757200220310000188002184300102360000566000129200003410000588000525500026330000000000000000006130000096000022300483430028243002134000002720021068000902100002090001388000027400006360007048000116500000000000897000020400000170000209004840500279530021026000017900208470006347000902500002670001379000172300006220000285000011700005900000000000018900003030048697002875600208010000052002074900053680006213000033300019450000809000049400002850003123000045200000000001569000015800486970030351002369500000950023600000630400102160002799000037900029890000200000002000001180000049000048000000460048697003008700220050000067002193800083760005862000248700003160003789000027300000740000545000002400000130000179004869700300870025288000014900251390013977000506000013700000305000370000001580000512000001200000000000045000000000483430028198001985600000690019787001129300000610000133000665800002660000735000062700000140048343002823900226310000062002256900147140007031000081900000050048697002936200238850000075002381000026200011543000810300015190000022000000300486970029428002299600001070022889001230100094580001127000000300484050000000001685800060930031856000279000003640006061000106200002700002512000047300000550001179000016600000720000278000124500011040001532002259400079580043418000352700020250004987002612100099830048405004859600026150027622002763000051520000051000510100049140000187004840500085600028507002844800096660000403000926300083220000941000000064500658001070012500041000520001800024000060000600048000320086500897001350010300540005770075200009009910030400433000130006600083000300001400006000280000000009000150059100723000020099700259002990001600094000390002400014001510002200000000760000800623007810000400996002670043300119000160012700008000010000500002000200000200618007310000300997003820026700113000140017300012000030002500001000010000800618008400099400994005560020100005000120014700006000200000000000000020000000603008130092300997001100048500340000640000100000006040078100005009950053700413000490000000553008110002800972004560008600014000420032800010000620000000000000020000000000005700079900009009910046900026000590001600027002410012100000000000002800004000100058400756000130098700428000100006600013000300033500055000000004300010000010001000583007040000300997005710000300007003360001300037000320000100584008010000300997006520031200036000000009500569001860001000990009630003700301005880034000042009580089800102004662600015250000079009630003200002
01013PREUSSISCH HOLLAN00400840022141000011600222570018590000028000183100011600000086000005020000577000326900011820000312000000000000000000007000000000000010040084002350900183030000169001813400119340000944000091300004910000482000185700010510000000000000000001930000108000016100400840022621001753100002530017278001101000005940001159000051300004490002563000075900000000000121000002900000140000067003806900221400016581000020600163750003379000799600004130002000000100300005680000230000008000000350000000000018000004910038069002252900170100000085001692500025010005287000044500012090001547000015400001220004458000020800000000000710000028400380690023402001939500000720019323000377700108660001427000044900023570000128000001500000250000019000024000000200038069002332400178910000058001783300086670003074000147600004280003389000019600000220000389000000400000280000160003806900234040020118000009500200230013104000233900007540000375000298500001370000293000001600000000000020000000000400840022829001673000000650016665001323700000640000155000215100004430000309000027600000300040084002298200186750000074001860100157690002444000037000000180038069002292000194160000064001935200025890007250000877800007060000026000000300380690022982001899300000840018909000800700103240000572000000600380690005182001325900055810022950000255000002890005571000103100003260002357000073400001330001749000011600000510000204000101200008630001302001870200072430034133000295100015870003936002165300088300038069003813500006360023100002310900014470000018000142900013600000069003806900082330022155002213900104200000209001021100097090000502001360061200603001180014600048000620003400046000050000500047000340086400897001360010300569005820074900012009880020600488000250012200061000350001400005000020000000011000300059200755000050099500148003120002600071000910000900007002630001200000000420001700615008290000400996001950056200074000230012200007000010000100001000120000100613007670000300997004860017200083000240019000011000010002200000000020000900615008600000500995006540011700038000190014900007000150000100000000010000000602008470075600997001340037500454000360000100000006040082600004009960042300546000300000000555008350001500985006340004700027000320017900065000170000000000000000000000000005860077900009009910065800052000500002700027001020005800000000000001100006000090056400775000140098600637000340006700030000260014800044000000000700002000010000400570007330000400996007940000400009001290002700019000170000200573008130000400996008480013100020000010002800606000630001200988009520004800372005820047100020009800095100049003608300017370000104009480004600003
01013RASTENBURG       00514300025751000017200259230022258000062100216370007124000292600008760000867000860000002260001001000000000000000000014000000000000030051430002719900226620000250002241200099330000745000159300008260000750000470900032670000000000000000003780000075000013600514300027764002269100002810022410001019200003380001744000086200008260006284000165200000000000344000006600000340000068005227700288410023581000026900233120007573000950700006730001686000210600005190000261000021600002010000000000021700003530052250002939700233550000091002326400060580006182000069200026450000601000082300001040005429000006900000000000471000019000522500030096002569000001230025567000657600109040003472000065400034750000117000001900001130000026000016500000460052250003028000236970000098002359900086480006029000338200006060004288000018600001250000170000001100000080000146005225000305130026397000017900262180014507000467400022390000590000387100001020000141000001300000000000081000000000514300027742002176000001120021648001217900000880000187000669100006850000833000096800000170051430002786500236780000096002358200152900007327000095600000090052250002999500253260000097002522900036200010808000835500023960000046000000400522500031272002341800000930023325001140200100280001891000000400522770013859001320400046020024920000417500004740009251000220400005300005796000145300001270002873000048800002310000831000156600013700002010002309000073340045681000466000024380006596002739000097720052277005238300026930028112002811500055960000071000552500053440000181005227700091800028708002865800115360000631001090500100540000851002650048200477001520017700080001110005300055000180001600057000380083000874001700012600524005520081800011009890032500408000290007200090000220001100009000090000000009000150056300794000040099600260002660003000114000260003500004002330000300000000200000800576008540000500995002570042600136000260013600005000010000400001000060000200580007830000400996003660025500143000260018200008000050000700000000000000600584008650000700993005530017800085000230014800004000050000000000000030000000574008440114900996001430042800331000950000200000005990074900004009960048900430000810000000504008590002800972003290013500040000400039700010000460000000000000010000000000005290083300011009890044300033000710003700033002100014600000000000001700003000060054000817000120098800455000150007800038000370028000074000000001500003000020000300539007840000500995005630000400009003090003200038000450000100542008500000400996006480031100041000000009600537001990001300987009670003300320005480040300055009450092200078004798200038960000142009180007500003
01013WEHLAU           00459810025113000006300251760020882000042800204540006716000234800000640001307000801200005640001411000000000000000000032000000000000000045981002599700210110000276002073500087170001535000117600001040000574000463500034730000000000000000002730000110000013800459810025976002060400002740020330000865900011160001325000007700006420005945000187500000000000357000006700000150000252004692500260830020857000018800206690006107000744300000720001436000319700005220000406000020600001570000000000029100008320046947002659600202400000079002016100052190003758000007500036270000698000035600001900004870000047600000000000682000021000469470027618002271000001070022603000579700096600004398000011000021260000131000001400000830000018000020300000630046947002751400210730000089002098400076410005281000436900001040002917000021200000650000234000001400000100000137004694700277420023600000015600234440012908000451500031050000085000240600001400000231000001500000000000039000000000459810025941001958600000800019506001126100000610000192000636200000940000601000092100000140045981002608700217660000067002169900142130006373000110100000120046947002704200227240000110002261400030260008627000713700037670000045000001200469470027093002130700001250021182000986200085420002766000001200469250011743001245900046690023542000350800003690008268000151700003430003779000056400000960001413000069900002830001606000139400011890001812002014100069490040420000493000028190006505002507100097680046925004688300035240025628002562800059990000053000594600057770000169004692500078950026162002609900092870000373000891400081630000751002500049700502001400017600061000810002200030000280003400056000390080300861001970013900534005560080000009009910029500360000030006900155000250002000010000080000000014000400056700761000040099600259001860000400180000350001800009002420002400000000340001000588008220000500995002560042700195000050009400006000010000400001000090000300586007660000400996003640025200208000050013900010000030001100001000000000700591008510000700993005510019300132000040010300006000100000100000000020000000576008400131000995001340038100316001670000200001005770078600006009940046600403001310000100548008290002000980003280011500003000640039200028000690000000000000020000000000005650080800013009870042000074000570000500028002240016700000000000001300005000070056500793000130098700426000550006500004000320029200092000000001800003000010001200564007550000400996005770000300010003260000500031000470000100567008340000300997006550029400051000010013800547002340000900991009720002800303005560035600040009600091600084004603000005970000135009810001300003
01022GUMBINNEN        05501030301596000153403031300228856000827602205800076021003435900010820019228006320700128590013228000000000000000000594000000000000020549835031320202436540003222024043201052880022789001972000018420012534003417400364280000000000000000042330001519000190505498350314148023627100024190233852010108700172510019133000167500137600050095002267200000000005778000072200004000001279053977803201210228965000235802266070064711007887200014570017505002387800123800006320000228700018630000000000721500101190539870032422802412310001049024018200545610049585000147000286890008533000776500033470068725000182100000000011442000424405398700338661026589200012330264659005407201381050036741000196400258360001563000024600018210000255000343800006180539870033857002461400001076024506401103630050317003443900017540037573000221200016800004047000013500002450002299053987003420290288657000187702867800175348004281900257770001880003439400015530003668000013300000000001208000000005498350316405021842800011190217309012891500006980004408005678900016990011543001287400003830549835031817302568230001156025566701791270061842001448900002090539870033480402705330001025026950800342720098722010760500280240000758000012705398700336125025803300014030256630011454401236110018320000015505397780150452017035900764530278283004229400060930091541002448100067060054820001297900016960027825000249300010790004363001431200120840018259026691801041110475091004388100239870064687031079901280980539778054038900447560311760031172200714550000996007045900680600002399053977800862370318271031828601111780003133010804501008420007203002790054800516001360017000079001020004200052000080000800046000340085900880001410012000576005930071500010009900028600348000060007700105000550002800010000080000000032000450060100744000040099600227002060000600119000360003200014002860000800000000480001800627007850000500995002040052200139000070009800006000010000700001000130000200627007270000400996004500020500141000070015300009000070001700001000010000900634008440000700993006110014900090000070012000005000130000000000000040000000620008089999900996001270036600399001040000300000006230076800005009950044600482000710000100551007550003600964003450015600005000870028700058000600000000000000030000000000005700077800013009870043800095000820000800052001420015200000000000001800006000080057100752000100099000432000740008200007000590021400097000000002500003000020000500575006900000500995005930000300020002610000800053000590000200579008070000500995007010024200057000010014400577002290001400986009660003400271005900034900028009720093300067052536100091540002201009730001700004
01023ANGERBURG        00404510020916000008000209960016179000036000158190005163000158100000460001408000630700002780001028000000000000000000008000000000000000040451002146600169090000250001665900067540001103000111400001270000669000511000015000000000000000000001780000040000006400404510021834001687500002150016660000695400008240000999000009700005710006651000034800000000000110000003800000160000052003852600221040017198000019100170070007526000629000001010000866000038100005360000242000017800000960000000000034400004470038635002293100177280000107001762100066360002479000010300009420000398000026700001130005561000017700000000000765000018000386350024216002024400001110020133000598400102870001962000010700013680000102000001800001050000020000015200000280038635002395500190720000092001898000085440005603000222200000970001964000015000000750000187000000800000190000111003863500240940020887000012700207600011914000526400012080000091000196900000880000161000000900000000000056000000000404510023363001606200000840015978000827300000500000088000674700000950000609000009000000260040451002217500182070000086001812100111700006819000012700000050038635002353200198680000097001977100015180008062000832600018310000028000000600386350023731001948100001390019342000902300092480001059000001200385260006927001297600053980022907000267700002470005708000115700002800002724000053500001010001314000020200001100000311000090900007880001174001845600069240034138000301600017050004388002147200086290038526003848500042140021725002172800060770000078000599900057690000230003852600056860022474002247100070400000331000670900062200000489001800060400595001250014800054000710002500034000090000800042000300086000886001400011400557005740077800011009890044300370000060005100022000320001400010000060000000020000260059400773000060099400377001410000600053000230001500006003160001000000000430001000627008360000500995002970051100097000050006800005000010000500001000080000100620007960000500995004500029500117000050010300008000040001000000000010000600624008670000600994005740025400058000040009500004000080000000000000030000000609008440114900995000770040800421000930000100000006140082100007009930046600478000550000100519007710002200978003260010000003000890039900018000650000000000000010000000000005310078800015009850040500066000670000800040003070009000000000000001100002000040054000773000130098700417000490006000006000340039900021000000000700002000010000300578006870000500995005180000300006004220000600038000060000200548008210000500995006160037600007000000019400565002800001300987009620003800253005830031300047009530092700073003762200005530000096009770001400002
01023DARKEHMEN        00333010017623000011200177350013065000040200126630004418000122500000150001235000417500000220001529000000000000000000044000000000000000033301001832100139940000096001389800047880002158000098700000670000590000235400025660000000000000000001960000072000012000333010018409001363600001320013504000521700016260000932000005300006300003944000082600000000000206000001900000130000038003263500181680013313000014000131730003929000523900000210000797000120000005370000332000012700000970000000000015600007380032635001813900139330000051001388200041250002793000002000009340000304000028400001100004445000008900000000000517000026100326350018880001570900000680015641000424100074780001277000005100022770000072000000600000510000013000014300000320032635001869100143200000060001426000060240003268000162100000340002859000010100000510000180000000600000130000103003263500188890016376000009500162810009451000267400009770000030000289200000440000168000001500000000000030000000000333010018298001251600000570012459000701600000720000194000380500000720000700000057900000210033301001842500146530000051001460200097830004174000062600000190032635001850600154380000050001538800029980005844000538400011480000013000000100326350018376001377200001120013660000662300064400000592000000500326350000000001263600049540022868000163600001570003395000078100002080001746000028900000380000734000007200000290000127000086100007530001057001627500061390029927000189500011250002708001817000072640032635003263000015590018109001811300033190000084000323500031240000111003263500074840017755001773100083740000474000790000069810000919000000069500701000900010400043000540001600022000040000400047000320089600917001040008300557005570073300011009890029800398000020006100091000410002500010000070000000012000560055600768000040099600297002010000100067000220002000008003200000600000000370001900579008320000400996002710047800082000030014600005000000000300001000090000200573007660000400996004220022900114000020020000007000040001300000000010000700579008670000600994005800016400060000020017800003000100000100000000020000000567008340060000997001950038000350000750000100000005630074900008009920048500471000430000000533007370003100969003490009700001000980033000002001210000000000000030000000000005500076400007009930034500155000710000500042001690018500000000000001400005000090055300741000100099000386001200006900004000470029200061000000001500001000010000300549006840000500995005630000600016003050000600056000460000200553007950000300997006700028600043000010008600555001830002500975009660003400422005430047200057009430088400116003227900002610000045009890000800001
01023GOLDAP           00443110023928000016000240880016769000082900159400005576000427900000910001155000297800001360001653000000000000000000072000000000000000044311002477900192550000182001907300094570001812000264300000820000565000208500020360000000000000000001640000088000014100443110025075001827300001250018148000929600011350002187000009600005960003198000139900000000000138000003700000160000050004267200252610018907000012400187830004967000874900001060001623000115300006730000229000005700002500000000000051900004570042672002534000193610000050001931100041320005039000009100013900000660000026600002160005866000013500000000001200000031600426720026365002161900000670021552000392500124980002181000010500022560000128000001400000600000018000032500000420042672002652000195480000052001949600087790003980000199600001630003758000018800000540000398000001100000120000157004267200267510022838000011000227280014212000348800014150000085000297300001110000388000000800000000000048000000000443110025376001775000000750017675001214300000360000223000387100001060000496000074900000510044311002536500210630000056002100700162110004054000073500000070042672002611200213980000053002134500026470006965001037500012890000044000002500426720026305002099100000880020903000852000114640000900000001900426720008511001577500070100024891000289900003220006395000138500003230003167000059300000620001559000014200000620000237000090900007480001255002170300085270037504000350100017960005168002520400103230042672004266300021420024955002496800038440000041000380300036720000131004267200085980024873002487100097650000162000960300092090000394001990062600583001150015000055000740002400037000060000600036000290086100879001390012100591005920074800007009930026400466000060008600061000360001200003000130000000028000240059400764000030099700214002610000500072000340001400011003040000700000000620001600618008200000300997001820058000101000050010500006000010000300001000150000200621007370000300997004500020400102000080019300010000030002000001000010000800627008540000500995006250015300062000040013100005000170000000000000020000000612008190064700998001240032600486000600000200001006160079800004009960040800548000430000100544006960004900951003500026800006000720018700009001040000000000000050000000000005590077700009009910049600095001390000400030001090010700000000000000900005000070056600729000070099300512000630012100005000330017600077000000000800002000010000300573006990000400996006870000200013002190000600028000420000300572008300000300997007720019300035000000008600585001540001100989009660003400346005830039300017009830095900041004177400005870000099009790001400002
01023GUMBINNEN        00503170028715000010700288220023322000058800227340007180000479000000840001441000733600009020000908000000000000000000093000000000000000050317003065700247920000359002443300113110001649000134800001440000621000360900041490000000000000000013920000083000012700503170030124002403600002540023782001119100024110001316000012400007700005476000195800000000000277000012500000230000111005018500296760023920000019500237250007505000979600001190001543000171200006390000654000013700000510000000000104400005250050185003098800246920000090002460200055940006377000010400026660000645000035100001550007097000006500000000001283000026500501850031545002635300001230026230000631600133250002983000012900027760000104000002000000970000022000042200000360050185003159900243160000114002420200092230005655000318700001160005020000019500000680000527000000700000090000195005018500320070028071000017700278940015233000505000025180000102000435500000940000481000001300000000000048000000000503170029798002240200000950022307001423500000600000310000600300001160000437000111100000350050317002987200255100000105002540500179610006341000109500000080050185003143900260250000105002592000045130009033000998700023250000040000002200501850031460002450700001520024355001040800122920001637000001800501850019002001411700061140023159000457900007230009673000233900006260005242000215700001730004055000021500000880000361000133100011920001558002473800089160044048000399800023850006137002873600113010050185005033100036480029103002905200072430000090000715300069460000207005018500090020029902002994200115300000243001128700108390000448003790049100461001590019300081001040007500081000070000700046000310086100878001390012200573005910080600008009920031600413000050006500072000270002800006000020000000044000220061700797000040099600227002590000400108000260001400006002880000300000000520001100629008350000500995002410050800114000050010600004000010000400001000160000100630007700000500995003810023400132000050020700008000030002200000000000000800638008770000600994005460018100090000040015600003000170000000000000020000000626008280126800996001740034800385000900000200001006270077900006009940042700505000670000100573008090002500975003160021100004000630032300040000400000000000000040000000000006090080900014009860046300067000550000600025001480017000000000000005700003000050059900798000110098900471001010005500005000320023000082000000001200005000010000500592007520000400996006380000300014002690000500020000500000200594008540000400996007070025000043000000012600577002490001200988009710002900301005970038500021009790096000040004917400005830000208009800001200004
01023HEYDEKRUG        00066240003784000001200037960002692000009200026000001105000022100000720000165000077200002540000011000000000000000000000000000000000009999999999999999999999999999999999999999999999999999999999999999999999999999999999999999999999999999999999999999999999999999999999999999999999999999999999999999999999999999999999999999999999999999999999999999999999999999999999999999999999999999999999999999999999999999999999999999999999999999999999999999999999999999999999999999999999999999999999999999999999999999999999999999999999999999999999999999999999999999999999999999999999999999999999999999999999999999999999999999999999999999999999999999999999999999999999999999999999999999999999999999999999999999999999999999999999999999999999999999999999999999999999999999999999999999999999999999999999999999999999999999999999999999999999999999999999999999999999999999999999999999999999999999999999999999999999999999999999999999999999999999999999999999999999999999999999999999999999999999999999999999999999999999999999999999999999999999999999999999999999999999999999999999999999999999999999999999999999999999999999999999999999999999999999999999999999999999999999999999999999999999999999999999999999999999999999999999999999999999999999999999999999999999999999999999999999999999999999999999999999999999999999999999999999999999999999999999999999999999999999999999999999999999999999999999999999999999999999999999999999999999999999999999999999999999999999999999999999999999999999999999999999999999999999999999999999999999999999999999999999999999999999999999999999999999999999999999999999999999999999999999999999999999999999999999999999999999999999999999999999999999999999999999999999999999999999999999999999999999999999999999999999999999999999999999999999999999999999999999999999999999999999999999999999999999999999999999999999999999999999999999999999999999999999999999999999999999999999999999999999999999999999999999999999999999999999999999999999999999999999999999999999999999999999999999999999999999999999999999999999999999999999999999999999999999999999999999999999999999999999999999999999999999999999999999999999999999999999999999999999999999999999999999999900573007090003400966004250008500028000630029700098000040000000000000000000000000999999999999999999999999999999999999999999999999999999999999999999999999999999999999999999999999999999999999999999999999999999999999999999999999999999999999999999999999999999999999999999999999999999999999999999999999999999999999999999999999999999999999999999999999999999999999999999999999999999999999999999999999999999999999999999999999999999999999999999999999999999
01023INSTERBURG L     00464500024869000005900249280018410000082900175810006250000141000000290001817000747600003290000266000000000000000000004000000000000000046450002601000193590000141001921800079480001614000117800000790001520000339000030610000000000000000001930000085000015000464500025736001875100001700018581000824900007200000996000005300015760004318000178200000000000740000005100000330000063004477500250880019210000020600190040006852000814200000410000827000101900010200000162000013100000300000000000047500003050044814002536800193430000073001927000052870004206000005600019050000395000090400000790005491000024100000000000529000017700448140026722002128400000850021199000511500103670002675000007800025050000097000001400001560000022000013000000400044814002656800188570000068001878900074400004830000232400000470003571000012400001460000145000000800000080000146004481400262500021843000013500217080012581000417500015250000029000311400000820000123000000600000000000073000000000464500024730001623600000580016178000886600001040000273000491300000720001091000081400000450046450002584500202530000070002018300134100005641000111400000180044814002579700205540000046002050800033960008223000696300018560000059000001100448140025953001944600000800019366000977100086210000962000001200448310000000001830300082090030081000242100002080005254000085100001580002396000027300000190000715000008600000500000141000095600008530001145002289000094970039732000360400020050005043002649400115020044775004482400032790025138002514500057250000074000565100054420000209004483100077970024949002494200098330000414000941900085550000864000000069100672000910011700032000540001000016000030000300036000260086400887001360011300592005600076600011009890036100428000020004400054000540000900007000020000000025000160056600762000040099600274002180000300099000200004700004002850001300000000270000900596007960000400996002410048900126000040011800005000010000700001000060000200593007100000400996003960025700124000030019000007000080000800000000000000800586008320000600994005800019200070000010014300004000060000000000000030000000576007970057700998001660040100340000910000300001005790074900004009960050500445000500000100537007390004500955003550008000002001030042500019000150000000000000000000000000005600074400007009930041400084000610000400079001760015900000000000001000004000080055400729000090099100444000390005400003000850023200096000000004000003000020000300532006570000400996005480000600017003040000400067000500000300556007840000300997006640027900055000010013000561002280001300987009630003700313005560039400042009580090800092004431500003910000019009900000900000
01023INSTERBURG S     00383400020997000017400211710018351000074900176020002479000455900001710002313000487700021470001012000000000000000000044000000000000000038340002182100185610000423001813800051940002321000201000002320002066000272600032430000000000000000002010000082000006300383400022542001893300002300018703000537600013580002233000021500025540004071000243200000000000264000004600000610000093003931100236080019460000016500192950006206000413600001700002004000211600019860000637000046400000030000000000127000003030039311002622400219340000129002180500054680002728000018700029200000991000153700001700006477000002400000000000823000048000393110026285002149400001220021372000500700094130003499000024800022600000278000000400003090000016000026700000710039311002715000212660000112002115400075580005161000326600002150003665000041800004010000273000000900000020000186003931100276180023412000014100232710012047000458300026830000219000298200002770000253000000300000000000224000000000383400023526001691800001040016814000760100000480000558000449500002400002459000140400000090038340002356900187770000067001871000119670005328000141500000000039311002692200224880000091002239700027480009915000688900027970000048000000000393110026851002148400001020021382001092400084830001975000000000393110039311000055700001880001041000591900013100012156000470100012750011062000307000003980005673000044400001850000845000155300012710001993001624400046270032770000431800022060006541002056200068330039311003939000059350022403002247800076490000110000753900072930000246003931100032000025957002596600054760000095000538100051250000256010000002700026002880030900229002810014900144000220002100076000510079000834002100016600523006010082400008009920032200214000090010400110001030003300024000000000000066000160066700836000060099400251001250000900134000450007000008002970000100000000380002200669008180000600994002340044000164000120010600013000000001400001000120000300691007830000500995003570024400154000100017300020000190001300000000000000900703008480000600994005180019700115000090012800012000110000000000000100000000685008350109000996001230044300308001250000200000006830080000005009950051100397000920000000552008670004100959001410025900010001310027700122000570000000000000020000000000005690085100023009770028600128001110001300114001500017900000000000001100005000030058800840000120098800287000730011900011001370021800130000000001400002000030000500614007190000600994004520000300033002670001400146000840000100615007970000400996006400028500076000000026400571003400001400986009670003300123006610021100017009830095200048003679700011740000338009360003000009
01023NIEDERUNG        00552370029878000006200299400021925000074300211820008545000208900000300001997000671500016370000164000000000000000000005000000000000000058079003185000227510000235002251600128580000776000152700001760001307000181100032630000000000000000003130000237000024800580790032175002136200001920021170000971800011650001701000015400013180003574000222800000000001021000011700000430000131005571700318310019909000022900196800005369000611800001530001924000226900009770000538000014500000550000000000041200017200055726003218400208250000083002074200034860003570000015500032390000776000045000004530006571000021600000000001558000026800557260034201002469100001080024583000364700137040003659000021400025100000117000003000001010000036000048900000760055726003407600230420000085002295700117680003468000322500001760003224000014300000960000557000003500000130000252005572600343250028040000021000278300018859000296700021590000227000300800000850000429000001500000000000081000000000580790032369002035600001380020218001292600000520000334000508900001340000859000077000000540058079003263800239930000133002386000173860005307000114200000250055726003359500258430000105002573800033630009624001022100024270000087000001600557260033831002453500001640024371001154400114260001358000004300557170000000002219800107920035547000331000004690006796000182700004920003842000065000001100001528000019100000790000318000161800013310002089002979400132730050120000376500020450005597003355900153180055717005576400043570032074003208600060210000078000594300057080000235005571700067070032053003204200107110000236001047500096070000868000000066100638000990012200054000690001900027000060000600048000370088800900001120010000602005710062500012009880027300311000080009800115000500002700007000030000000021000870057800647000040099600168001720000700156000370002200022003170001000000000750001300614007220000400996001480055700149000090010200005000010000400001000200000300611006760000400996005130015100140000080014000006000040002400002000010001100616008170000700993006780010700078000080010800003000150000100000000030000000603007690136500996001310037400397000940000300001006070072500007009930047400469000560000200542007320003400966004030009900001000940031700077000080000000000000000000000000005480071400010009900057100034000680000800058000800014500000000000001400011000110055400664000090099100459000550008000007000620016900105000000004800006000020000600557006290000700993006390000300017002520000700042000380000300562007350000600994007290022200048000010013600575001880001300987009600004000209005750033400022009780091700083005455200008300000191009790001500003
01023OLETZKO          00402590021371000020900215800017172000037500167970008933000243300000960000283000346700000010001567000000000000000000016000000000000010040259002230100187220000231001849100096590003395000087200001150000223000271100011750000000000000000001400000045000015600402590022885001826300001770018086001084500018240000809000010000002630003221000073000000000000090000003300000090000162004010700223480016638000020600164320004147000842500000690000864000067100003560000506000009400006820000000000006700005510040107002262400161010000140001596100028390005209000006200010750000300000020900002300004219000027800000000000556000098400401070024015001813700001490017988000302300114510001132000008400019450000079000007200000490000018000009000000450040107002368700177580000148001761000108940002970000097600000720002209000008200000360000131000000900001160000115004010700237000020212000019500200170014905000213100007750000062000192700000740000093000002300000000000027000000000402590022550001750100000860017415001247800000590000280000381200001000000257000042100000080040259002295200198690000129001974000160220003146000056800000040040107002334400195270000117001941000022560004658001147700009590000057000000300401070023671001916500001300019035000593800126050000485000000700401070005957001625900073450026090000241200002850005105000123800003310002714000051300000760001321000012500000570000216000090300007050001278002145000087990036724000230000011840003383002375000099830040107004011200013800022807002280600022260000050000217600020510000125004010700112170022269002226700126890000329001236000117090000651001490068500651001020012700052000680002200033000050000500038000320090300916000970008400592005570074400012009880025200513000040005300041000220003100006000420000000004000340056400712000090099100178003260000400067000190001300014002640001700000000350006200599007550000800992001680063700063000050010800004000040000300001000050000300591007500000800992006190016900055000040012500005000020000700001000070000700591008530001000990007450010600039000030009600004000050000100000000010000000582008360140000994001160024000591000490000300000005900081000007009930031200662000250000000536007960002200978005320014500006000170020600000000930000000000000010000000000005540084000012009880052200184000470000600012001470006400000000000000800002000080056800798000100099000600001010004500006000150017800040000000000500002000000000900560007760000500995007170000300016002190000600015000240000000570008660000600994008120015900029000000006100569000980002200978009430005700504005550057000026009740094700053003889200009730000113009700002400003
01023PILLKALLEN       00467950024993000007700250700018384000056200178220007801000187400000040000982000238100046170000071000000000000000000092000000000000000046795002572800203880000191002019700110420000399000169400000800000507000400800019750000000000000000001880000182000012200467950025759001987300001750019698001074400007820001093000006700005630004440000136000000000000425000005100000350000138004409600259970017713000020200175110004697000678500000560001448000174900004630000482000028800002730000000000047400007960044096002509900184660000058001840800047060004989000005400015840000485000021200001570005154000015100000000000603000031300440960026719002094300000940020849000409800113910002819000010800020010000083000001000000720000025000018500000570044096002652100190540000075001897900092690003461000257600000700003076000012100000360000216000000800000090000137004409600266390022157000011600220410013576000288600022070000172000287600000710000203000001100000000000039000000000467950025647001806400000740017990001178800000500000187000522500000840000335000028700000340046795002587900210230000064002095900152110005115000057500000580044096002606600209330000074002085900029490006769000902800020400000050000002300440960026284001984700000940019753000847200100480001219000001400440960000000001811200082930029366000213700002830004590000124200003670002428000058100001010001351000013800000610000212000098800008490001269002319800099540039216000367100020190004880002686900119730044096004416100019690025039002504000044180000067000435100041950000156004409600090030024817002482100101920000249000994300093120000631000000067400666000800010400046000550002200031000050000500037000290086300889001370011100609005900068100011009890026800387000030008300100000260002800016000160000000027000450056900736000030099700256002710000300086000260001200009002800000800000000330001700606007840000400996001970054600135000050009600004000000000300001000090000300601007180000400996004880018200136000040016200006000020001100000000000000700604008320000500995006160013100100000080013000003000090000000000000020000000591008030092200996001410032500433000980000200001005960075500005009950042900509000620000100536007330003100969004380010500000000550013400259000040000000000000050000000000005500079200009009910054700020000840000400025001980009800000000000000900009000060055000771000090099100545000400005500003000290022500069000000002200003000020000700548007040000400996006550000300010002900000500019000160000200553008120000300997007260024400027000030007900567001760001500985009640003600363005630041100024009760093700063004295000008940000096009740002000002
01023STALLUPONEN      00449020024137000017200243090018167000073500174320008100000191300000990001301000401200011950000765000000000000000000047000000000000000044902002606800207050000267002043800106280001271000138600002240000892000255200030010000000000000000002360000108000014000449020025358001951300001960019317001033700010320001332000020300007460003619000136000000000000438000006200000190000169004351500247940018348000019600181520003976000776800001450001432000231200006270000387000017200001480000000000073400004510043515002477000185870000080001850700032520005264000015400021720000600000025300002890005082000016100000000001003000027700435150026303002124800000920021156000344400125340002901000020100016160000103000001300000880000016000019000000500043515002585500198020000086001971600106490002751000302200001780002471000015400000600000217000000900000100000195004351500259320022484000014600223380014810000212000023650000184000246000000890000219000000600000000000085000000000449020025193001823000000950018135001236900000560000343000396400001890000517000065700000400044902002531600210790000079002100000160050004206000074400000450043515002570900212930000081002121200020790005825001056900026760000053000001000435150025674002043000001170020313000742200110290001850000001200435150012248001422900061450023586000229100003230005062000236800005830005826000082700001070002104000014500000610000254000123000010730001589002109000082920038421000322400017260005094002431400100180043515004348700026560024595002457000047210000059000466200045310000131004351500071780023365002337700099410000173000976800092720000496002810058500542000940011600097001340003400048000060000600051000370086700883001330011700559005700074000011009890021900428000080007900127000350002100009000080000000040000250056900750000040099600176002840000800117000320001400016002750000900000000540001500604008080000400996001630059200137000100007600005000010000400001000090000200594007660000400996005400014000153000090012500008000030001100000000010001000596008670000600994006630009500106000080011000004000100000000000000040000000591008280097800996000980027500498001260000200000005900079600006009940036500543000910000100541007470004000960004650011000006000750023000069000440000000000000030000000000005810079400013009870052000062000680001100044001250014700000000000001200005000080056500770000100099000535000530006900011000390018700070000000002300003000010000900561007240000500995006820000300019002190001000029000360000200564008330000400996007620020000035000020010800565001920001200988009720002800307005370042500017009830094900051004234200008630000199009730002000005
01023TILSIT S         00444240029128000020900293370021164000100900201550002781000528200002780002674000602000008790002188000000000000000000052000000000000010047515003188300246360000501002413500045150004600000337900003940002395000224800055350000000000000000006490000262000015800475150031783002510900003460024763000389500032200004038000040700028120004598000477000000000000683000005700000870000196005083400384490024174000027600238980005247000188100003940002631000587900030680001346000036500000060000000000137800017030050834003651700274630000108002735500050380001610000040700057050002155000236900010180006873000002500000000001749000040600508340037983002909100001180028973000497800132700006709000052400016910000285000002300005980000027000078000000880050834003870300261720000106002606600102210004944000559500004510002539000039900005510000939000001600000080000403005083400404000033519000023500332840019218000448700046180000561000267000004250000860000000800000000000437000000000475150032840002335100001580023193001017900000310000981000477400003560002671000417800000230047515003281300265940000149002644500155890007079000377500000020050834003853900308200000118003070200021580014037000952200048450000138000000200508340038404002972500001170029608001437800114540003770000000600508340050834000198600010280002942000823100013570018828000522200017220010560000269600004000005523000059300002410001071000192900015870002374002065700063350041298000603800036370009536002669500099720050834005106800077360032871003279600123240000164001216000118590000301005083400015540036550003657600041860000040000414600039590000187010000007400058003080037000196002080010100109000220002100072000470077400812002260018800525007560062900011009890022000079000160011000246001280005600015000000000000058000710071800752000040099600184000590001500209000790008700037002510000100000000640001500747007660000400996001720045800232000180005800010000010002100001000270000300761006760000400996003920019000215000170009700015000210003600001000000001500795008300000700993005770013500139000170008000013000260000000000000130000000758008000147500996000700045700310001580000400000007550077400004009960048600387001270000000660007210004800952001380026200014001330029900044001090000000000000030000000000006710077300020009800018700191001400001600099000930022900000000000002700011000070066900790000140098600157001300016300016001140018600193000000002800002000040000800691007110000700993004390000100042002060001500115001800000100691008100000600994005890026800143000000023600642003760001300987009750002500042007200011400010009900095500045004820100014060000644009480002800013
01023TILSIT-RAGNIT    00586920031257000010100313580023256000100300222530007690000270300000670002457000669100004620002066000000000000000000117000000000000000059115003231800235820000346002323600111340001691000158200001220001179000157000049240000000000000000003830000235000041600591150032468002164700002070021440000926500011540001497000010600013610002985000347900000000001386000008600000450000076005740500327970020175000022800199470004290000554300000820001546000341700014980000805000012900001720000000000034200021230057340003404400227980000080002271800039980005321000007700041570000824000066300003570005889000025900000000000856000031700573400035427002507900000960024983000429400123870004944000011500026310000115000002200001350000022000026500000530057340003524500229330000078002285500099940004226000442900001350003217000013700001060000277000000900000260000299005734000354240028818000019000286280018542000299400033270000118000316800001130000290000001600000000000060000000000591150032715001904200000950018947001104100000800000637000409100001350001112000181400000370059115003332400258020000167002563500184120004632000257300000180057340003524300263460000088002625800036470009767000886400038310000141000000800573400035585002465000001080024542001152100105010002513000000700573490007662002321100109770035805000378200004090008579000137000003410003113000079500001110001948000014000000560000270000112500009340001478003042300128280051193000455100021540006212003497400149820057405005747400058810032941003294000078880000101000778700074700000317005734900088110033307003328000114410000387001105400100540001000001340066400624001080014900039000540002300034000040000500032000260087000892001300010800609005710061500011009890021500278000040007800171000750004000006000090000000017001060059400670000040099600176002340000300183000360002900016002590001100000000380001400618007080000400996001720049600198000050010500005000010000500001000110000200615006510000300997004370018500194000060014100006000050001200000000010001300618008140000700993006480010500116000040011100004000100000100000000020000000615007480117600997001390037200338001460000500000006210069300004009960046900428001020000000534007420004300957003460012100003001100030100021000930000000000000050000000000005470073000015009850047900073000680000500051000680021200000000000001600010000180054900667000100099000432000540007000005000630013900162000000006500004000020000400553005820000500995005830000400034002160000700059000960000200564007740000600994007180018100100000010017900573002390001300987009590004100265005800034400034009660091000090005646300006390000153009840001100003
01032ALLENSTEIN       05367340280390000093902813290230003001006502199380076758002761400346950007062004839000060760010953000000000000000001165000000000072250536054029187702476750003688024398701066430023638001407800313750004855003519500136980000000000000000023280000869001130805360540294107023439100031810231210010067900193570013189002916200056430037769001179000000000007654000059100002350005141054028702958280221077000276702183100049881007799600280790011357001095500056950004457000142000043570000000000188800222250540287030293002238140001372022244200405100049794003086500152230005735000362600042930053158000621500000000007561000546205402870319908024212800013300240798003350301285230021255003228900190750001234000024300007470000350000134700022320540287031784302297890001237022855201069580034590002150200293750028252000185200006310001497000017100002460003478054028703225660275790000217102736190177861002510900126580029758002497100010860001297000021600000000000663000000005360540293583021793500013360216599013354200007260002471004277700272350004370000503700004410536054029608402466090001330024527901695020069786000579500001960540287031424002550260001244025378200286940104542010313100167020000613000010005402870315354025178300014040250379011557401241100010584000011105402870115125017250200781200293344003718200046910083826002153100054570053260001425900014320030500000245800011740004371001184700100310015247025977901009050480548003666800185330059739029644701194380540287054097800170810292518029262200396100000665003894500368680002077054028700854160297673029758501051140003216010189800947620007136002130058200543001250015500073000990004800056000080000800040000280087600889001240011100549005480074700013009870022800357001290005200050000260002000007000200000000009001020056100739000060099400182002240013900068000260001600019002390002800000000340002500592007570000500995001390053400088001340007900005000010000300001000060000900588007230000500995004680015100094001290012400008000030000700001000010001500597008550000800992006500009200046001090009100004000050000100000000020000000582008129999900995001130041200406000660000200000005840079800006009940046200496000420000000524008180004400956003490012600158000320022000028000500000000000000050000000033005440084900015009850043700097000580012900020001440005600000000000001000004000460054900797000140098600435000840005700126000240016300051000000003300003000010002200548007420000600994006170000300011001970012600020000230000200552008330000500995006910028500024000010005800541001350001700983009470005300287005510035300031009690093000070039084401442660002275007230026700004
01033ALLENSTEIN L     00575180028946000004600289920023867000138900224780001261000139500096160000148000426200002360000461000000000000000000065000000000050340057518002924900245070000784002372300042730000437000060000076170000174000167700017700000000000000000001770000102000689600575180029319002098200003820020600000422600002390000464000720400002340002290000139000000000001629000007100000370002816005580800298270020644000031600203280003454000414900071700000439000101900002570000362000011500004060000000000012200028350055808003053900206030000130002047300029670002448000841200012370000202000012400010440001368000056200000000000123000198600558080032505002147400000970021377000222500049560002726000880400011060000048000005500000250000077000001100013440055808003144200209610000101002086000045710002106000268100085240001363000006100000170000027000004000000500001420005580800327780026310000048900258210012242000194600015540008497000144200000380000028000005800000000000016000000000575180029819001652200002220016300000478700000670000217000352200068060000227000058000000940057518002965100204380000198002024000070950012467000062100000570055808003170400229510000144002280700014640015306000409900018460000084000000800558080032027002383000001510023679001629100061250001254000000900558080000000002225800104120037404000264600003580006136000110400002810002965000055400000800001497000013600000750000280000086200006670001248002756000118730049530000415400020700006278003171400139430055808005606500021760029506002950100050210000060000496100046450000316005580800031270029787002977600042050000178000402700035410000486000000070200670000830011000035000530001700027000040000500027000220086900888001310011200568005340069200015009850017000204003530002200050000130001800006000200000000006001390054700675000060099400145001200041100060000100000600051000670002700000000060009700582006610000500995001040023200128004120005200002000030000100004000010006300563006670000500995002190010100129004090006500003000010000100002000020006800587008030001900981004740007500060003290005600001000010000200000000010000000568007240198900994000640067100180000810000400000005740074400006009940068800259000530000000504008230005800942000560006200428000070019000010000210000000000000030000000224005090083800032009680018000018000250032100007000710007500000000000000700004002910051000716000180098200205000120002300350000110011100067000000007900003000020013700518005540001300987002940000400013002160041800014000360000600516006890001000990003510061600031000030007400526001700001200988009360006400105005340014100042009580087900121000372800518990000064000670093000001
01033ALLENSTEIN S     00347310020780000009900208790016024000046400155600001866000432100051850000414000100200005610001667000000000000000000217000000000003270034731002209700171590000243001691600046640001539000096000058970000524000077100020630000000000000000000730000048000037700347310022351001817100002600017911000479700011320001307000603400008560001151000185800000000000419000005100000080000298003810500228940018117000017700179400001839000439100065560001491000137000007560000396000020200000060000000000019000007430038105002457700198180000088001973000019050002754000681800018140000881000035000008900003172000002700000000000871000024800381050025167002042000001160020304000172000072300002312000709500014850000135000000200000980000040000005100001360038105002577300189760000072001890400055160001721000227500063550002408000020800001000000045000002500000050000246003810500262760022683000019000224930009897000134100017100006859000233600001340000045000000500000000000166000000000347310022694001755700000760017481000769200000600000171000156400060890000665000123300000070034731002250200182070000056001815100086200008607000092300000010038105002560500215360000072002146400022280011796000543500019600000043000000200381050025617002053100000790020452001205300070670001332000000000381050038105000066500002460001238000470800009710009849000408000011270010414000367700003160007011000070100003150001373000141800013340001608001524900043090031493000388500020740006612001913400063830038105003806500013400022147002215500031400000032000310800029970000111003810500041360023535002353200049140000025000488900047260000163010000003500032002460025800213002730019200184000370003600074000420079700826002030017400502006010079100010009900010300245003650008300076000420002200011000000000000011000410064500806000040099600097001400034600092000450001800045001610000100000000440001300660008110000600994000850035600114003490007300007000000000500002000030000700676007360000400996002920009100120003360012700011000050000200001000000001300690008630000800992004400006000076003050010400006000020000000000000070000000672008410085600997001040055000253000910000200000006720080100004009960058900346000650000000601007670002900971001200027800333000270006400036001070000000000000140000000021006360077700014009860027600091000570034900031000460012200000000000000400003000220064400813000140098600268000630007300337000480006400104000000002300003000000001700653007740000400996004400000300010000890034800038000710000000648008090000300997004750047400051000000006000582001420001000990009640003600176006180020900005009950096700033001385800234970000612003640061700016
01033JOHANNISBURG     00524030027002000010600271080022091000108600210050008161000370400001270000504000695900002680001190000000000000000000092000000000000000052403002797700247380000284002445400138090002171000167000001730000390000400500013630000000000000000004850000132000025600524030028467002283300003920022441001071800021810001474000018600005700005130000135800000000000604000010000000220000098005523900285920020825000028200205430004830000736700001470001096000258000006930000428000005400006400000000000016000025480055239002865800210770000139002093800037870004783000011800019200000446000048400002310007155000043100000000001406000017700552390030661002325100001050023146000327400157650002124000018200012000000127000000500000930000028000028400000640055239003047300219390000103002183600129290003390000261600001560001895000015600000990000394000001700000040000180005523900308850026387000019300261940020064000250200012020000140000177000000870000336000001200000000000081000000000524030028115002139100001170021274001426000000950000248000581500001600000433000023600000270052403002892700235620000116002344600179760004941000050100000280055239003003900242250000123002410200019820007477001253800020540000045000000600552390030229002415600001650023991000832700144270001223000001400552390005186002021200090980034217000347400003290007577000200300004700004398000101700001320002559000014500000660000242000097600008500001207002782700109450050200000311300013940005039003094000123390055239005528000019870028650002866900046400000075000456500043060000259005523900080580028161002813800117360000379001135700106050000752000940065300619001120013700065000800003300046000050000400032000220089900909001010009100560005180072800014009860023500359000070005300126000340002100003000310000000008001240051900735000070099300181002280000600092000210002300011003420002100000000670000800555007580000500995001410068100092000080005200005000000000400001000120000300552007200000500995005920015500120000070008700007000050001800001000000000800559008540000700993007660009600046000050006800003000130000000000000030000000544008060152600995000820031000520000850000200000005470079900007009930034700601000510000100517008150004900951003890017600006000240033100013000570000000000000040000000000005340088400011009890056500089000680000700016001640005600000000000002000005000100054300802000170098300478000970006600008000250022900061000000002700004000010000400537007610000500995006700000400012002730000800020000110000100552008150000500995007670021100021000010006900519001620001600984009430005700286005090041700032009680093400066005330100015140000210009650002700004
01033LOTZEN           00456810023653000005600237090019358000064800187100006360000421900002630001115000510800004990001053000000000000000000083000000000000100045681002468100202360000339001989700090860001565000192400003210000592000523600005000000000000000000001690000086000041800456810024615001980700002900019517000889200011510001781000031100005260005518000070800000000000183000009200000610000294004572400261860019026000025100187750006521000635200002380001409000023800005200000205000007500001710000000000026100027850045757002623100184010000137001826400049540003058000022100011970000998000032100002700005290000085000000000000748000035700457570027501002129800001220021176000369800136430001624000024000014120000163000002400000550000012000026200000430045757002719400195480000111001943700107380003804000175300002320001999000047900000450000227000001200000240000124004575700272730023158000013100230270016699000260000008640000200000222600001580000227000001400000000000039000000000456810025060001919000001110019079001250400000580000135000549300002580000453000016100000170045681002527200207300000116002061400153730004947000028700000070045757002693000218210000119002170200022550007719001038200012810000061000000400457570026869002112600001330020993000870900114450000836000000300457240010552001446800064200024394000339600003620007165000191100004470004629000145100001160002956000022300001340000321000098300008950001150002243200083740040615000311300015540005109002554500099280045724004574800015080025203002521500041170000050000406700039020000165004572400079330025502002551400090940000340000875400083010000453002310056600534001330015700075001010005700065000090000700038000250087800888001220011200559005730072700013009870034700338000130007500013000280001100004000090000000014001480057300701000070099300271001670001200066000550001800015002900004700000000410002000601007740000600994001750064400077000110006700008000010000300001000120000200594007190000600994005520019600090000120010300025000020001200001000010000600596008490000600994007250011300038000090009700007000100000100000000020000000589008100146900995001040035600478000590000300000005870078600006009940041500545000400000000519008160003300967003400022500014000600027300027000560000000000000040000000001005400082000017009830045700079000970001600030002630002500000000000000800004000210053900805000150098500456000590009100016000270028300036000000000900005000030001500549007660000600994006550000300007002880001400024000080000100553008200000600994007460024000014000000006000551001630001200988009590004100311005580035600037009630094800052004402700012710000144009630002800003
01033LYCK             00574140030587000009000306770025835000091300249220011990000397800000960001063000673500000260000707000000000000000000281000000000000460057414003317700282310000271002796000130040005715000214900002410000611000465200010070000000000000000002470000096000023800574140032826002538900003490025040001273400026650002087000026300005230004649000118700000000000691000007400000180000149005842500321660023519000034900231700005546000828600002710001694000154100003730000719000009500012180000000000028800031390058425003290500249940000154002484000039920006280000027900018380000541000032900001470008048000138800000000000931000106700584250034138002628400001460026138000333600184570001680000031100018810000106000003300000900000020000016000000640058425003426600257720000110002566200170200003351000173500003060002574000016100000780000191000001100000400000195005842500343920030084000015800299260024055000226900009500000288000196500000850000206000004100000000000067000000000574140032635002475800001440024614001783500000920000303000487400002800000414000068500001310057414003295300283020000200002810200223530005027000070700000150058425003366000282580000126002813200026310006460001757800013910000069000000300584250033957002733700001410027196000806600184610000667000000200584250015159001952600089590031451000389300005250008605000272100006150006874000178200001810003747000025100001160000420000151300012650001980002968600116610053077000341400017310005348003310000133920058425005841100015850031693003169500038260000068000375800035590000199005842500124010032829003284900148470000354001449300135010000992002590059000538001180014700082001180005400064000080000700046000340089700908001030009200567005510073100015009850023900358000120007300067000160003100004000530000000012001350056300760000060099400161002530001100074000220001300006003240005600000000370004300584007700000600994001280070600064000120007200004000010000300001000060000200586007520000400996006630013100068000120010000006000030000700000000020000800589008750000500995008040007600032000100006600003000070000100000000020000000576008400150000996000940023000625000490000200000005810080500005009950029700679000250000000534008420003500965004810016000004000430027000001000280000000000000110000000002005780085100010009900046500204000770000900022001660003600000000000000900003000090057200773000140098600509001060008300011000210018600047000000002800003000010000600568007590000600994007250000400012001980001100017000280000500574008590000700993007950017900025000010005000543001210001800982009470005300378005620045200024009760093200068005603000019000000273009590003300005
01033NEIDENBURG       00385630018928000007000189980015942000034600155960009542000104000002900000121000373300003650000403000000000000000000017000000000000850038571001988200170820000213001686900099450003034000040700002770000253000199200006160000000000000000001230000053000016900385710020041001651600002000016316000946300034120000481000030400002830001505000064500000000000120000002500000100000068003859900207010015965000021800157470003088000834100003060000478000037700003310000192000035500001540000000000011000020150038594002108100149680000119001484900027020005725000034700006220000290000014900001140003831000034500000000000570000015400385940022143001602500001120015913000173700109760000905000032100016730000107000001500000400000019000005900000610038594002213300156630000126001553700099160001769000078900003220002347000012000000480000078000000600000160000126003859400223990019731000014700195840015859000084400004060000285000198100001040000042000000900000000000054000000000385710019924001542900001040015325001204400000410000513000204400002860000224000015700000160038571001997900179790000096001788300156360001893000034100000130038594002170400174910000120001737100033850004510000847600009310000052000001700385940021818001759400001350017459000581400112460000377000002200385990006502001483800068070025051000211100002550005052000107300003230002341000051100000660001301000012600000590000229000071100006240000878001937000081340034852000224200011060003747002161200092400038599003869900001710020128002014100005770000014000056300005180000045003859400098580020675002065000113560000327001102900102710000758001680068700649000980013100050000610002400034000060000600033000230089600903001040009700560005360077100014009860019600530000190003000024000210001200023000100000000007001280054600710000080099200182003860002300042000200001000008002580002300000000380001000574007240000700993001090069000057000200010500007000010000300001000040000400573007080000800992006380011400051000210015100008000030000500000000010000800580008810000700993008100004300021000150010100005000020000000000000030000000562008060148900993001950026000488000540000300001005650080600008009920033300644000220000100493008390002200978006120006700019000080023900023000260000000000000010000000005005150085900012009880059000180000240001600015001180003700000000000000700003000100052000824000120098800580002090002900019000170009200040000000000700002000010000400517007740000700993007860000300033001330001900015000100000100518009000000500995008740010600019000010000800520000290002400976009200008000477005350055000029009710093100069003544000029210000134009180007600003
01033ORTELSBURG       00737190035427000008200355090027308000230500250030013723000209600013760000713000338700019360001284000000000000000000025000000000004630073719003686600318080000412003139600188500002290000160300016090000483000330800018360000000000000000003240000135000095800737190037108002933300003450028988001658200028320001442000169600004430003763000146000000000000321000007600000230000350007104800373060026316000033500259810004605001095400016780001188000198000010310000336000022300005020000000000017400033100071039003827100270640000131002693300035460007723000168700026320000557000043500001430008173000064000000000001056000034100710390040611003124400001130031131000311200205570002606000178400024780000113000002500000940000012000018700001630071039004045600299120000138002977400175970003190000287900016500003745000013800000610000194000000800000330000279007103900414420036081000019500358860026633000213300018460001716000324300000920000146000002700000000000050000000000737190036736002878500001310028654002136300000770000249000421900015940000444000067800000300073719003735000327660000126003264000262840005522000082100000130071039004026200330670000128003293900035800007905001845300028990000083000001900710390039850003238600001630032223000979800205950001815000001500710480010357002498600116360042930000428200004710010070000195700005510004580000141300001170003252000017900000730000297000130200010810001779003411900139290062908000492500023840008140003904400163130071048007114400015070037237003724800045500000137000441300040900000323007103900124050037415003739200166590000424001623500151430001092001460064000604001100014200050000640003600046000050000400033000250087400885001260011500550005250070500013009870017700422000650004600076000400001300009000190000000007001270053900707000050099500132002870006300098000210001600005003030002400000000390001300572007690000400996001000066000084000570008000004000010000300000000060000500569007390000500995005910010700097000550012600005000020000700000000010000900583008710000500995007420005900051000480009000003000040000100000000010000000567008210155900996001090024000560000880000300001005610081300005009950030400639000560000000482007690008400916005490008400055000290013500077000510000000000000010000000019005000086300013009870060000073000510005100015001050005800000000000001000004000310050300790000120098800572000980005000059000150013000050000000001100003000010001200498007840000500995007460000300009001470005600015000240000100507008770000400996008050016900025000000004000524001220003000970009270007300332005260044600025009750093300067006244900079660000206008790011200003
